{
  "contractName": "Contract",
  "abi": [
    {
      "anonymous": false,
      "inputs": [
        {
          "indexed": false,
          "internalType": "string",
          "name": "res",
          "type": "string"
        }
      ],
      "name": "Myevent",
      "type": "event"
    },
    {
      "inputs": [
        {
          "internalType": "string",
          "name": "uuid",
          "type": "string"
        }
      ],
      "name": "setVehicleStatus",
      "outputs": [],
      "stateMutability": "nonpayable",
      "type": "function"
    }
  ],
  "bytecode": "0x608060405234801561001057600080fd5b50610254806100206000396000f3fe608060405234801561001057600080fd5b506004361061002b5760003560e01c8063aa5d485214610030575b600080fd5b61004361003e3660046100e4565b610045565b005b60008160405161005591906101b9565b9081526040519081900360200190205415610072576100726101d5565b7fb58728ea1fc0389ea1078b5d1833ae97cedee74c5b53b4f6d4281af24be5867c816040516100a191906101eb565b60405180910390a160016000826040516100bb91906101b9565b9081526040519081900360200190205550565b634e487b7160e01b600052604160045260246000fd5b6000602082840312156100f657600080fd5b813567ffffffffffffffff8082111561010e57600080fd5b818401915084601f83011261012257600080fd5b813581811115610134576101346100ce565b604051601f8201601f19908116603f0116810190838211818310171561015c5761015c6100ce565b8160405282815287602084870101111561017557600080fd5b826020860160208301376000928101602001929092525095945050505050565b60005b838110156101b0578181015183820152602001610198565b50506000910152565b600082516101cb818460208701610195565b9190910192915050565b634e487b7160e01b600052600160045260246000fd5b602081526000825180602084015261020a816040850160208701610195565b601f01601f1916919091016040019291505056fea2646970667358221220f99877aa10bad52497a1386718a4ff3bcb68ad67331e76e073985595fbb148d364736f6c63430008110033",
  "immutableReferences": {},
  "source": "// SPDX-License-Identifier: UNLICENSED\npragma solidity ^0.8.17;\n\ncontract Contract {\n    struct Vehicle {\n        uint256 status;\n    }\n\n    mapping(string => Vehicle) vehicles;\n\n    //id\n    event Myevent(string res);\n\n    //id\n    function setVehicleStatus(string memory uuid) public {\n        assert(vehicles[uuid].status == 0);\n        emit Myevent(uuid);\n        vehicles[uuid].status = 1;\n    }\n}\n",
  "sourcePath": "/home/endericedragon//ReproducingBlockchain/EventListening/contracts/TestContract.sol",
  "compiler": {
    "name": "solc",
    "version": "0.8.17+commit.8df45f5f.Emscripten.clang"
  },
  "schemaVersion": "3.4.10",
  "updatedAt": "2022-11-01T09:26:15.983Z",
  "devdoc": {
    "kind": "dev",
    "methods": {},
    "version": 1
  },
  "userdoc": {
    "kind": "user",
    "methods": {},
    "version": 1
  }
}