{
  "contractName": "ConvertLib",
  "abi": [
    {
      "inputs": [
        {
          "internalType": "uint256",
          "name": "amount",
          "type": "uint256"
        },
        {
          "internalType": "uint256",
          "name": "conversionRate",
          "type": "uint256"
        }
      ],
      "name": "convert",
      "outputs": [
        {
          "internalType": "uint256",
          "name": "convertedAmount",
          "type": "uint256"
        }
      ],
      "stateMutability": "pure",
      "type": "function",
      "constant": true
    }
  ],
  "bytecode": "0x60e7610039600b82828239805160001a60731461002c57634e487b7160e01b600052600060045260246000fd5b30600052607381538281f3fe730000000000000000000000000000000000000000301460806040526004361060335760003560e01c806396e4ee3d146038575b600080fd5b60476043366004606c565b6059565b60405190815260200160405180910390f35b600060638284608d565b90505b92915050565b60008060408385031215607e57600080fd5b50508035926020909101359150565b8082028115828204841417606657634e487b7160e01b600052601160045260246000fdfea26469706673582212209bf758bf36c8fea7e5a3d7ee2e869da24c9e46c2996e372a994a303b4fac2b2664736f6c63430008110033",
  "immutableReferences": {},
  "source": "pragma solidity 0.8.17;\n\nlibrary ConvertLib {\n    function convert(uint256 amount, uint256 conversionRate)\n        public\n        pure\n        returns (uint256 convertedAmount)\n    {\n        return amount * conversionRate;\n    }\n}\n",
  "sourcePath": "/home/endericedragon/文档/ReproducingBlockchain/EventListening/contracts/ConvertLib.sol",
  "compiler": {
    "name": "solc",
    "version": "0.8.17+commit.8df45f5f.Emscripten.clang"
  },
  "schemaVersion": "3.4.10",
  "updatedAt": "2022-11-01T09:26:20.829Z",
  "networkType": "ethereum",
  "devdoc": {
    "kind": "dev",
    "methods": {},
    "version": 1
  },
  "userdoc": {
    "kind": "user",
    "methods": {},
    "version": 1
  }
}