{
  "contractName": "StoreMap",
  "abi": [
    {
      "constant": true,
      "inputs": [
        {
          "internalType": "bytes32",
          "name": "",
          "type": "bytes32"
        }
      ],
      "name": "adjacencyList",
      "outputs": [
        {
          "internalType": "uint256",
          "name": "adjnum",
          "type": "uint256"
        }
      ],
      "payable": false,
      "stateMutability": "view",
      "type": "function"
    },
    {
      "constant": true,
      "inputs": [
        {
          "internalType": "bytes32",
          "name": "",
          "type": "bytes32"
        }
      ],
      "name": "geo_maps",
      "outputs": [
        {
          "internalType": "uint256",
          "name": "num",
          "type": "uint256"
        }
      ],
      "payable": false,
      "stateMutability": "view",
      "type": "function"
    },
    {
      "constant": true,
      "inputs": [
        {
          "internalType": "bytes32",
          "name": "hash",
          "type": "bytes32"
        }
      ],
      "name": "get_types",
      "outputs": [
        {
          "internalType": "int64[]",
          "name": "feature",
          "type": "int64[]"
        },
        {
          "internalType": "bytes32[]",
          "name": "names",
          "type": "bytes32[]"
        },
        {
          "internalType": "bytes32[]",
          "name": "highways",
          "type": "bytes32[]"
        },
        {
          "internalType": "bytes32[]",
          "name": "gtypes",
          "type": "bytes32[]"
        },
        {
          "internalType": "bytes32[]",
          "name": "path",
          "type": "bytes32[]"
        }
      ],
      "payable": false,
      "stateMutability": "view",
      "type": "function"
    },
    {
      "constant": false,
      "inputs": [
        {
          "internalType": "uint256",
          "name": "gid",
          "type": "uint256"
        },
        {
          "internalType": "int64",
          "name": "minzoom",
          "type": "int64"
        },
        {
          "internalType": "int64",
          "name": "cost",
          "type": "int64"
        },
        {
          "internalType": "int64",
          "name": "source",
          "type": "int64"
        },
        {
          "internalType": "int64",
          "name": "target",
          "type": "int64"
        },
        {
          "internalType": "bool",
          "name": "oneway",
          "type": "bool"
        },
        {
          "internalType": "bool",
          "name": "building",
          "type": "bool"
        },
        {
          "internalType": "bytes32",
          "name": "highway",
          "type": "bytes32"
        },
        {
          "internalType": "bytes32",
          "name": "name",
          "type": "bytes32"
        },
        {
          "internalType": "bytes32",
          "name": "gtype",
          "type": "bytes32"
        },
        {
          "internalType": "bytes32[]",
          "name": "path",
          "type": "bytes32[]"
        }
      ],
      "name": "add_onetype",
      "outputs": [],
      "payable": false,
      "stateMutability": "nonpayable",
      "type": "function"
    },
    {
      "constant": false,
      "inputs": [
        {
          "internalType": "bytes32",
          "name": "hash",
          "type": "bytes32"
        },
        {
          "internalType": "uint256",
          "name": "gid",
          "type": "uint256"
        }
      ],
      "name": "add_area_line",
      "outputs": [],
      "payable": false,
      "stateMutability": "nonpayable",
      "type": "function"
    },
    {
      "constant": false,
      "inputs": [
        {
          "internalType": "bytes32",
          "name": "startGeohash",
          "type": "bytes32"
        },
        {
          "internalType": "bytes32",
          "name": "endGeohash",
          "type": "bytes32"
        }
      ],
      "name": "astar",
      "outputs": [
        {
          "internalType": "bytes32[]",
          "name": "backwards",
          "type": "bytes32[]"
        },
        {
          "internalType": "uint256",
          "name": "costAll",
          "type": "uint256"
        },
        {
          "internalType": "uint256",
          "name": "searchNum",
          "type": "uint256"
        },
        {
          "internalType": "uint256",
          "name": "u2",
          "type": "uint256"
        }
      ],
      "payable": false,
      "stateMutability": "nonpayable",
      "type": "function"
    },
    {
      "constant": true,
      "inputs": [
        {
          "internalType": "bytes32",
          "name": "nextGeohash",
          "type": "bytes32"
        },
        {
          "internalType": "bytes32",
          "name": "endGeohash",
          "type": "bytes32"
        }
      ],
      "name": "manhattan",
      "outputs": [
        {
          "internalType": "uint256",
          "name": "",
          "type": "uint256"
        }
      ],
      "payable": false,
      "stateMutability": "view",
      "type": "function"
    },
    {
      "constant": false,
      "inputs": [
        {
          "internalType": "uint256",
          "name": "newPrecision",
          "type": "uint256"
        }
      ],
      "name": "changePrecision",
      "outputs": [
        {
          "internalType": "uint256",
          "name": "",
          "type": "uint256"
        }
      ],
      "payable": false,
      "stateMutability": "nonpayable",
      "type": "function"
    },
    {
      "constant": false,
      "inputs": [
        {
          "internalType": "uint256",
          "name": "newP",
          "type": "uint256"
        }
      ],
      "name": "changeP",
      "outputs": [
        {
          "internalType": "uint256",
          "name": "",
          "type": "uint256"
        }
      ],
      "payable": false,
      "stateMutability": "nonpayable",
      "type": "function"
    },
    {
      "constant": true,
      "inputs": [
        {
          "internalType": "bytes32",
          "name": "geohash1",
          "type": "bytes32"
        },
        {
          "internalType": "bytes32",
          "name": "geohash2",
          "type": "bytes32"
        }
      ],
      "name": "sliceGeoHash",
      "outputs": [
        {
          "internalType": "string",
          "name": "",
          "type": "string"
        },
        {
          "internalType": "string",
          "name": "",
          "type": "string"
        },
        {
          "internalType": "bool",
          "name": "",
          "type": "bool"
        }
      ],
      "payable": false,
      "stateMutability": "view",
      "type": "function"
    },
    {
      "constant": true,
      "inputs": [
        {
          "internalType": "string",
          "name": "geohash",
          "type": "string"
        }
      ],
      "name": "getLatBlock",
      "outputs": [
        {
          "internalType": "uint256",
          "name": "",
          "type": "uint256"
        }
      ],
      "payable": false,
      "stateMutability": "view",
      "type": "function"
    },
    {
      "constant": true,
      "inputs": [
        {
          "internalType": "string",
          "name": "geohash",
          "type": "string"
        }
      ],
      "name": "getLonBlock",
      "outputs": [
        {
          "internalType": "uint256",
          "name": "",
          "type": "uint256"
        }
      ],
      "payable": false,
      "stateMutability": "view",
      "type": "function"
    },
    {
      "constant": true,
      "inputs": [
        {
          "internalType": "bytes32",
          "name": "geohash",
          "type": "bytes32"
        }
      ],
      "name": "getLonDelta",
      "outputs": [
        {
          "internalType": "uint256",
          "name": "",
          "type": "uint256"
        }
      ],
      "payable": false,
      "stateMutability": "view",
      "type": "function"
    },
    {
      "constant": true,
      "inputs": [],
      "name": "getLatDelta",
      "outputs": [
        {
          "internalType": "uint256",
          "name": "",
          "type": "uint256"
        }
      ],
      "payable": false,
      "stateMutability": "view",
      "type": "function"
    },
    {
      "constant": true,
      "inputs": [],
      "name": "top",
      "outputs": [
        {
          "internalType": "bytes32",
          "name": "",
          "type": "bytes32"
        }
      ],
      "payable": false,
      "stateMutability": "view",
      "type": "function"
    },
    {
      "constant": false,
      "inputs": [],
      "name": "dequeue",
      "outputs": [],
      "payable": false,
      "stateMutability": "nonpayable",
      "type": "function"
    },
    {
      "constant": false,
      "inputs": [
        {
          "internalType": "bytes32",
          "name": "geohash",
          "type": "bytes32"
        },
        {
          "internalType": "uint256",
          "name": "cost",
          "type": "uint256"
        }
      ],
      "name": "enqueue",
      "outputs": [],
      "payable": false,
      "stateMutability": "nonpayable",
      "type": "function"
    }
  ],
  "bytecode": "0x6080604052600160035563238dcec5600a55604051806102000160405280634705b03763ffffffff16815260200163465696b863ffffffff1681526020016344fa136b63ffffffff1681526020016342f3818c63ffffffff168152602001634047df9863ffffffff168152602001633cfdc30163ffffffff16815260200163391d47ef63ffffffff1681526020016334affd4463ffffffff168152602001632fc0cd0a63ffffffff168152602001632a5be18b63ffffffff16815260200163248e875463ffffffff168152602001631e670c6963ffffffff1681526020016317f49d0363ffffffff1681526020016311471e2463ffffffff168152602001630a6f066f63ffffffff16815260200163037d358663ffffffff16815250600b9060106200012d9291906200058c565b5064011c6e7628600c55604051806101c0016040528064011c16c0dc64ffffffffff1681526020016401195a5ae064ffffffffff168152602001640113e84dac64ffffffffff16815260200164010bce063064ffffffffff1681526020016401011f7e6064ffffffffff16815260200163f3f70c0464ffffffffff16815260200163e4751fbc64ffffffffff16815260200163d2bff51064ffffffffff16815260200163bf03342864ffffffffff16815260200163a96f862c64ffffffffff168152602001635fd2740c64ffffffffff16815260200163451c789064ffffffffff1681526020016329bc19bc64ffffffffff168152602001630df4d61864ffffffffff16815250600d90600e62000246929190620005e6565b50640471b9d8a0600e556040518061020001604052806408e0b606e064ffffffffff1681526020016408cad2d70064ffffffffff16815260200164089f426d6064ffffffffff16815260200164085e70318064ffffffffff168152602001640808fbf30064ffffffffff16815260200164079fb8602064ffffffffff168152602001640723a8fde064ffffffffff168152602001640695ffa88064ffffffffff1681526020016405f819a14064ffffffffff16815260200164054b7c316064ffffffffff168152602001640491d0ea8064ffffffffff1681526020016403cce18d2064ffffffffff1681526020016402fe93a06064ffffffffff168152602001640228e3c48064ffffffffff16815260200164014de0cde064ffffffffff168152602001636fa6b0c064ffffffffff16815250600f9060106200038b92919062000641565b5064238dcec500601055604051806102000160405280642382d81b8064ffffffffff16815260200164232b4b5c0064ffffffffff16815260200164227d09b58064ffffffffff168152602001642179c0c60064ffffffffff168152602001642023efcc0064ffffffffff168152602001641e7ee1808064ffffffffff168152602001641c8ea3f78064ffffffffff168152602001641a57fea20064ffffffffff1681526020016417e066850064ffffffffff16815260200164152df0c58064ffffffffff16815260200164124743aa0064ffffffffff168152602001640f3386348064ffffffffff168152602001640bfa4e818064ffffffffff1681526020016408a38f120064ffffffffff16815260200164053783378064ffffffffff1681526020016401be9ac30064ffffffffff168152506011906010620004d192919062000641565b50600a6012556040518060a00160405280601060ff168152602001600860ff168152602001600460ff168152602001600260ff168152602001600160ff168152506013906005620005249291906200069c565b506040518060400160405280602081526020017f30313233343536373839626364656667686a6b6d6e707172737475767778797a8152506014908051906020019062000572929190620006f3565b5060046015553480156200058557600080fd5b50620007a2565b828054828255906000526020600020908101928215620005d3579160200282015b82811115620005d2578251829063ffffffff16905591602001919060010190620005ad565b5b509050620005e291906200077a565b5090565b8280548282559060005260206000209081019282156200062e579160200282015b828111156200062d578251829064ffffffffff1690559160200191906001019062000607565b5b5090506200063d91906200077a565b5090565b82805482825590600052602060002090810192821562000689579160200282015b8281111562000688578251829064ffffffffff1690559160200191906001019062000662565b5b5090506200069891906200077a565b5090565b828054828255906000526020600020908101928215620006e0579160200282015b82811115620006df578251829060ff16905591602001919060010190620006bd565b5b509050620006ef91906200077a565b5090565b828054600181600116156101000203166002900490600052602060002090601f016020900481019282601f106200073657805160ff191683800117855562000767565b8280016001018555821562000767579182015b828111156200076657825182559160200191906001019062000749565b5b5090506200077691906200077a565b5090565b6200079f91905b808211156200079b57600081600090555060010162000781565b5090565b90565b6125ef80620007b26000396000f3fe608060405234801561001057600080fd5b506004361061010b5760003560e01c8063bc6331da116100a2578063d35a1d0d11610071578063d35a1d0d146107b6578063e9966b68146107f8578063f90e5ca914610816578063fdcd80aa1461084e578063fe6dcdba146109765761010b565b8063bc6331da1461064e578063cbf3b01e14610690578063cd3d7196146106d2578063d1cf2408146107145761010b565b806368ba6df9116100de57806368ba6df914610406578063957908d1146104d557806399c2c70e146104df578063b1f3d7bd1461060c5761010b565b806313372041146101105780633fb805821461014857806344cf2cd7146102eb57806353f065fd146103ba575b600080fd5b6101466004803603604081101561012657600080fd5b810190808035906020019092919080359060200190929190505050610994565b005b6101746004803603602081101561015e57600080fd5b8101908080359060200190929190505050610b3d565b60405180806020018060200180602001806020018060200186810386528b818151815260200191508051906020019060200280838360005b838110156101c75780820151818401526020810190506101ac565b5050505090500186810385528a818151815260200191508051906020019060200280838360005b838110156102095780820151818401526020810190506101ee565b50505050905001868103845289818151815260200191508051906020019060200280838360005b8381101561024b578082015181840152602081019050610230565b50505050905001868103835288818151815260200191508051906020019060200280838360005b8381101561028d578082015181840152602081019050610272565b50505050905001868103825287818151815260200191508051906020019060200280838360005b838110156102cf5780820151818401526020810190506102b4565b505050509050019a505050505050505050505060405180910390f35b6103a46004803603602081101561030157600080fd5b810190808035906020019064010000000081111561031e57600080fd5b82018360208201111561033057600080fd5b8035906020019184600183028401116401000000008311171561035257600080fd5b91908080601f016020809104026020016040519081016040528093929190818152602001838380828437600081840152601f19601f820116905080830192505050505050509192919290505050610fe0565b6040518082815260200191505060405180910390f35b6103f0600480360360408110156103d057600080fd5b810190808035906020019092919080359060200190929190505050611176565b6040518082815260200191505060405180910390f35b6104bf6004803603602081101561041c57600080fd5b810190808035906020019064010000000081111561043957600080fd5b82018360208201111561044b57600080fd5b8035906020019184600183028401116401000000008311171561046d57600080fd5b91908080601f016020809104026020016040519081016040528093929190818152602001838380828437600081840152601f19601f820116905080830192505050505050509192919290505050611265565b6040518082815260200191505060405180910390f35b6104dd6113fa565b005b61060a60048036036101608110156104f657600080fd5b8101908080359060200190929190803560070b9060200190929190803560070b9060200190929190803560070b9060200190929190803560070b90602001909291908035151590602001909291908035151590602001909291908035906020019092919080359060200190929190803590602001909291908035906020019064010000000081111561058757600080fd5b82018360208201111561059957600080fd5b803590602001918460208302840111640100000000831117156105bb57600080fd5b919080806020026020016040519081016040528093929190818152602001838360200280828437600081840152601f19601f820116905080830192505050505050509192919290505050611652565b005b6106386004803603602081101561062257600080fd5b8101908080359060200190929190505050611b62565b6040518082815260200191505060405180910390f35b61067a6004803603602081101561066457600080fd5b8101908080359060200190929190505050611d10565b6040518082815260200191505060405180910390f35b6106bc600480360360208110156106a657600080fd5b8101908080359060200190929190505050611d2e565b6040518082815260200191505060405180910390f35b6106fe600480360360208110156106e857600080fd5b8101908080359060200190929190505050611d4c565b6040518082815260200191505060405180910390f35b61074a6004803603604081101561072a57600080fd5b810190808035906020019092919080359060200190929190505050611d5f565b6040518080602001858152602001848152602001838152602001828103825286818151815260200191508051906020019060200280838360005b8381101561079f578082015181840152602081019050610784565b505050509050019550505050505060405180910390f35b6107e2600480360360208110156107cc57600080fd5b81019080803590602001909291905050506122a2565b6040518082815260200191505060405180910390f35b6108006122b5565b6040518082815260200191505060405180910390f35b61084c6004803603604081101561082c57600080fd5b81019080803590602001909291908035906020019092919050505061230f565b005b6108846004803603604081101561086457600080fd5b810190808035906020019092919080359060200190929190505050612369565b60405180806020018060200184151515158152602001838103835286818151815260200191508051906020019080838360005b838110156108d25780820151818401526020810190506108b7565b50505050905090810190601f1680156108ff5780820380516001836020036101000a031916815260200191505b50838103825285818151815260200191508051906020019080838360005b8381101561093857808201518184015260208101905061091d565b50505050905090810190601f1680156109655780820380516001836020036101000a031916815260200191505b509550505050505060405180910390f35b61097e612582565b6040518082815260200191505060405180910390f35b600060166000018054905014156109d957601660000160009080600181540180825580915050906001820390600052602060002001600090919260001b909190915055505b6016600001829080600181540180825580915050906001820390600052602060002001600090919290919091505550806016600101600084815260200190815260200160002081905550600060016016600001805490500390505b600181118015610aad57506016600101600060166000018381548110610a5657fe5b906000526020600020015481526020019081526020016000205460166001016000601660000160028581610a8657fe5b0481548110610a9157fe5b9060005260206000200154815260200190815260200160002054115b15610b385782601660000160028381610ac257fe5b0481548110610acd57fe5b9060005260206000200154601660000160028481610ae757fe5b0481548110610af257fe5b90600052602060002001600060166000018581548110610b0e57fe5b90600052602060002001600084919050558391905055505060028181610b3057fe5b049050610a34565b505050565b60608060608060606000600160008881526020019081526020016000206000015490506000809050600080831115610fd45782600702604051908082528060200260200182016040528015610ba15781602001602082028038833980820191505090505b50975082604051908082528060200260200182016040528015610bd35781602001602082028038833980820191505090505b50965082604051908082528060200260200182016040528015610c055781602001602082028038833980820191505090505b50955082604051908082528060200260200182016040528015610c375781602001602082028038833980820191505090505b50945060008091505b83821015610ec557600160008b81526020019081526020016000206001016000838152602001908152602001600020549050600080600083815260200190815260200160002090506000600784029050828b8281518110610c9d57fe5b602002602001019060070b908160070b815250508160000160009054906101000a900460070b8b6001830181518110610cd257fe5b602002602001019060070b908160070b815250508160000160089054906101000a900460070b8b6002830181518110610d0757fe5b602002602001019060070b908160070b815250508160030160009054906101000a900460070b8b6003830181518110610d3c57fe5b602002602001019060070b908160070b815250508160030160089054906101000a900460070b8b6004830181518110610d7157fe5b602002602001019060070b908160070b815250508160000160109054906101000a900460ff1615610dc65760018b6005830181518110610dad57fe5b602002602001019060070b908160070b81525050610dec565b60008b6005830181518110610dd757fe5b602002602001019060070b908160070b815250505b8160000160119054906101000a900460ff1615610e2d5760018b6006830181518110610e1457fe5b602002602001019060070b908160070b81525050610e53565b60008b6006830181518110610e3e57fe5b602002602001019060070b908160070b815250505b81600501546001860101945081600201548a8581518110610e7057fe5b6020026020010181815250508160010154898581518110610e8d57fe5b6020026020010181815250508160040154888581518110610eaa57fe5b60200260200101818152505050508180600101925050610c40565b82604051908082528060200260200182016040528015610ef45781602001602082028038833980820191505090505b5094506000809050600092505b84831015610fd157600160008c8152602001908152602001600020600101600084815260200190815260200160002054915060008060008481526020019081526020016000209050806005015460001b878380600101945081518110610f6357fe5b60200260200101818152505060008090505b8160050154811015610fc25781600601600082815260200190815260200160002054888480600101955081518110610fa957fe5b6020026020010181815250508080600101915050610f75565b50508280600101935050610f01565b50505b50505091939590929450565b60008060019050600080905060008090505b845181101561116b57600085828151811061100957fe5b602001015160f81c60f81b9050600080600090505b60148054600181600116156101000203166002900490508110156110ff57827effffffffffffffffffffffffffffffffffffffffffffffffffffffffffffff191660148281546001816001161561010002031660029004811061107d57fe5b81546001161561109c5790600052602060002090602091828204019190065b9054901a7f0100000000000000000000000000000000000000000000000000000000000000027effffffffffffffffffffffffffffffffffffffffffffffffffffffffffffff191614156110f2578091506110ff565b808060010191505061101e565b5060008090505b600581101561115b5760006013828154811061111e57fe5b90600052602060002001549050861561114957600286029550600081841614611148576001860195505b5b86159650508080600101915050611106565b5050508080600101915050610ff2565b508092505050919050565b600081831415611189576000905061125f565b60608060006111988686612369565b80935081945082955050505060006111af84611265565b905060006111bc84611265565b905060006111c986610fe0565b905060006111d686610fe0565b905060008060006111e56122b5565b905060006111f28e611b62565b90508787111561120657878703935061120c565b86880393505b8585111561121e578585039250611224565b84860392505b60011515891515141561124a57808402828402019b50505050505050505050505061125f565b808302828502019b5050505050505050505050505b92915050565b60008060019050600080905060008090505b84518110156113ef57600085828151811061128e57fe5b602001015160f81c60f81b9050600080600090505b601480546001816001161561010002031660029004905081101561138457827effffffffffffffffffffffffffffffffffffffffffffffffffffffffffffff191660148281546001816001161561010002031660029004811061130257fe5b8154600116156113215790600052602060002090602091828204019190065b9054901a7f0100000000000000000000000000000000000000000000000000000000000000027effffffffffffffffffffffffffffffffffffffffffffffffffffffffffffff1916141561137757809150611384565b80806001019150506112a3565b5060008090505b60058110156113df576000601382815481106113a357fe5b90600052602060002001549050866113cd576002860295506000818416146113cc576001860195505b5b8615965050808060010191505061138b565b5050508080600101915050611277565b508092505050919050565b60016016600001805490501161140f57600080fd5b60016016600001805490501161142457600080fd5b600061142e612582565b905060166000016001601660000180549050038154811061144b57fe5b9060005260206000200154601660000160018154811061146757fe5b9060005260206000200181905550601660000180548061148357fe5b600190038181906000526020600020016000905590556000600190505b6016600001805490506002820210156116345760006002820290506016600001805490506001820110156115435760166001016000601660000160018401815481106114e857fe5b9060005260206000200154815260200190815260200160002054601660010160006016600001848154811061151957fe5b906000526020600020015481526020019081526020016000205411156115425780806001019150505b5b601660010160006016600001838154811061155a57fe5b9060005260206000200154815260200190815260200160002054601660010160006016600001858154811061158b57fe5b906000526020600020015481526020019081526020016000205410156115b15750611634565b601660000181815481106115c157fe5b9060005260206000200154601660000183815481106115dc57fe5b9060005260206000200154601660000184815481106115f757fe5b9060005260206000200160006016600001858154811061161357fe5b906000526020600020016000849190505583919050555050809150506114a0565b60166001016000838152602001908152602001600020600090555050565b896000808d815260200190815260200160002060000160006101000a81548167ffffffffffffffff021916908360070b67ffffffffffffffff160217905550886000808d815260200190815260200160002060000160086101000a81548167ffffffffffffffff021916908360070b67ffffffffffffffff160217905550876000808d815260200190815260200160002060030160006101000a81548167ffffffffffffffff021916908360070b67ffffffffffffffff160217905550866000808d815260200190815260200160002060030160086101000a81548167ffffffffffffffff021916908360070b67ffffffffffffffff160217905550856000808d815260200190815260200160002060000160106101000a81548160ff021916908315150217905550846000808d815260200190815260200160002060000160116101000a81548160ff021916908315150217905550836000808d815260200190815260200160002060010181905550826000808d815260200190815260200160002060020181905550816000808d8152602001908152602001600020600401819055508060008151811061180357fe5b6020026020010151600260008360008151811061181c57fe5b602002602001015181526020019081526020016000206001016000600260008560008151811061184857fe5b60200260200101518152602001908152602001600020600001548152602001908152602001600020600001819055508060018251038151811061188757fe5b602002602001015160026000836000815181106118a057fe5b60200260200101518152602001908152602001600020600101600060026000856000815181106118cc57fe5b602002602001015181526020019081526020016000206000015481526020019081526020016000206001018190555086600260008360008151811061190d57fe5b602002602001015181526020019081526020016000206001016000600260008560008151811061193957fe5b6020026020010151815260200190815260200160002060000154815260200190815260200160002060020160006101000a81548167ffffffffffffffff021916908360070b67ffffffffffffffff16021790555088600260008360008151811061199f57fe5b60200260200101518152602001908152602001600020600101600060026000856000815181106119cb57fe5b6020026020010151815260200190815260200160002060000154815260200190815260200160002060020160086101000a81548167ffffffffffffffff021916908360070b67ffffffffffffffff1602179055508a6002600083600081518110611a3157fe5b6020026020010151815260200190815260200160002060010160006002600085600081518110611a5d57fe5b60200260200101518152602001908152602001600020600001600081548092919060010191905055815260200190815260200160002060020160106101000a81548167ffffffffffffffff021916908360070b67ffffffffffffffff16021790555060008060008d815260200190815260200160002060050154905060008090505b8251811015611b3957828181518110611af457fe5b60200260200101516000808f81526020019081526020016000206006016000848060010195508152602001908152602001600020819055508080600101915050611adf565b50806000808e815260200190815260200160002060050181905550505050505050505050505050565b60008060009050606060026040519080825280601f01601f191660200182016040528015611b9f5781602001600182028038833980820191505090505b50905060008090505b6002811015611c1157848160208110611bbd57fe5b1a60f81b828481518110611bcd57fe5b60200101907effffffffffffffffffffffffffffffffffffffffffffffffffffffffffffff1916908160001a90535082806001019350508080600101915050611ba8565b506000611c1d82611265565b90506015546001901b6015546001901b821614611c45578060018060155401036001901b0390505b6015546001901b8103905060076012541415611c7d5760118181548110611c6857fe5b90600052602060002001549350505050611d0b565b60086012541415611caa57600f8181548110611c9557fe5b90600052602060002001549350505050611d0b565b60096012541415611cd757600d8181548110611cc257fe5b90600052602060002001549350505050611d0b565b600a6012541415611d0457600b8181548110611cef57fe5b90600052602060002001549350505050611d0b565b8093505050505b919050565b60026020528060005260406000206000915090508060000154905081565b60016020528060005260406000206000915090508060000154905081565b6000816003819055506003549050919050565b60606000806000805a9050611d75876000610994565b600060076002016000898152602001908152602001600020819055508660076001016000600760000154815260200190815260200160002081905550600760000160008154809291906001019190505550600080600094505b6001601660000180549050111561229657611de7612582565b9150611df16113fa565b600060026000848152602001908152602001600020905088831415611fe257600760020160008481526020019081526020016000205496506000899050600460000154604051908082528060200260200182016040528015611e625781602001602082028038833980820191505090505b50985060008090505b8b8214611eb157818a8281518110611e7f57fe5b602002602001018181525050600460020160008381526020019081526020016000205491508080600101915050611e6b565b8b8a8281518110611ebe57fe5b6020026020010181815250505a8603965060008090505b600460000154811015611f395760046002016000600460010160008481526020019081526020016000205481526020019081526020016000206000905560046001016000828152602001908152602001600020600090558080600101915050611ed5565b50600060046000018190555060008090505b600760000154811015611faf5760076002016000600760010160008481526020019081526020016000205481526020019081526020016000206000905560076001016000828152602001908152602001600020600090558080600101915050611f4b565b5060006007600001819055505b60016016600001805490501115611fda57611fd56113fa565b611fbc565b505050612296565b60008090505b816000015481101561228f578680600101975050600060026000868152602001908152602001600020600101600083815260200190815260200160002060020160089054906101000a900460070b60070b60076002016000878152602001908152602001600020540190506000600760020160008560010160008681526020019081526020016000206001015481526020019081526020016000205414806120bd5750600760020160008460010160008581526020019081526020016000206001015481526020019081526020016000205481105b15612281576000600760020160008560010160008681526020019081526020016000206001015481526020019081526020016000205414156121475782600101600083815260200190815260200160002060010154600760010160006007600001548152602001908152602001600020819055506007600001600081548092919060010191905055505b80600760020160008560010160008681526020019081526020016000206001015481526020019081526020016000208190555061219c836001016000848152602001908152602001600020600101548c611176565b60035482020193506121c68360010160008481526020019081526020016000206001015485610994565b6000801b6004600201600085600101600086815260200190815260200160002060010154815260200190815260200160002054141561224d5782600101600083815260200190815260200160002060010154600460010160006004600001548152602001908152602001600020819055506004600001600081548092919060010191905055505b8460046002016000856001016000868152602001908152602001600020600101548152602001908152602001600020819055505b508080600101915050611fe8565b5050611dce565b50505092959194509250565b6000816012819055506012549050919050565b6000600760125414156122cc57601054905061230c565b600860125414156122e157600e54905061230c565b600960125414156122f657600c54905061230c565b600a601254141561230b57600a54905061230c565b5b90565b60006001600084815260200190815260200160002060000160008154809291906001019190505590508160016000858152602001908152602001600020600101600083815260200190815260200160002081905550505050565b60608060008085905060008590506000602060ff1690506000806000809050600092505b83831015612410578483602081106123a157fe5b1a60f81b7effffffffffffffffffffffffffffffffffffffffffffffffffffffffffffff19168684602081106123d357fe5b1a60f81b7effffffffffffffffffffffffffffffffffffffffffffffffffffffffffffff19161461240357612410565b828060010193505061238d565b60016002848161241c57fe5b06141561242c5760019150612431565b600091505b8260125403905060008090506060826040519080825280601f01601f1916602001820160405280156124725781602001600182028038833980820191505090505b5090506060836040519080825280601f01601f1916602001820160405280156124aa5781602001600182028038833980820191505090505b50905060008690505b601254811015612568578981602081106124c957fe5b1a60f81b8385815181106124d957fe5b60200101907effffffffffffffffffffffffffffffffffffffffffffffffffffffffffffff1916908160001a90535088816020811061251457fe5b1a60f81b82858151811061252457fe5b60200101907effffffffffffffffffffffffffffffffffffffffffffffffffffffffffffff1916908160001a905350838060010194505080806001019150506124b3565b508181869b509b509b505050505050505050509250925092565b600060016016600001805490501161259957600080fd5b60166000016001815481106125aa57fe5b906000526020600020015490509056fea265627a7a723158200c61095c222fc2c4a71aa0c46d2ea11efd069ef9ceb51327a83f346eb4bcb8b264736f6c63430005100032",
  "source": "\tpragma solidity ^0.5.16;\n\n\tcontract StoreMap{\n\t\t// \n\t\tstruct one_type\n\t\t{\t\n\t\t\tint64 minzoom;\n\t\t\tint64 cost;\n\t\t\tbool  oneway;\n\t\t\tbool  building; \n\t\t\tbytes32 highway;\n\t\t\tbytes32 name;   // \n\t\t\tint64 source;\n\t\t\tint64 target;\n\t\t\tbytes32 gtype;\n\t\t\tuint256 path_num;\n\t\t\tmapping(uint256 => bytes32) path;\n\t\t}\n\t\t//gid->one_type,store real types\n\t\tmapping(uint256 => one_type) types;\n\t\t// ,\n\t\tstruct  area_types{\n\t\t\tuint256 num;\n\t\t\t// num->gid,store gids of roads in the area\n\t\t\tmapping(uint256 => uint256) types_list;\n\t\t}\n\t\t// \n\t\tmapping(bytes32 => area_types) public geo_maps;\n\n\t\t//-----------------cjz--------------------------------------------------\n\t\t//\n\t\tstruct adj\n\t\t{\t\n\t\t\tbytes32 sourceGeohash;\n\t\t\tbytes32 targetGeohash;\n\t\t\tint64 target;\n\t\t\tint64 cost;\n\t\t\tint64 gid;\n\t\t}\n\t\t//\n\t\tstruct adj_types{\n\t\t\tuint256 adjnum;\n\t\t\tmapping (uint256 => adj) adjs;\n\t\t}\n\t\t//geohash\n\t\tmapping(bytes32 => adj_types) public adjacencyList;\n\n\t\t//P\n\t\tuint256 P = 1;\n\n\t\tstruct pathType{\n\t\t\tuint256 num;\n\t\t\tmapping(uint256 => bytes32) index;\n\t\t\tmapping(bytes32 => bytes32) map;\n\t\t}\n\t\tstruct costSofarType{\n\t\t\tuint256 num;\n\t\t\tmapping(uint256 => bytes32) index;\n\t\t\tmapping(bytes32 => uint256) map;\n\t\t}\n\t\t//\n\t\tpathType paths;\n\t\t//\n\t\tcostSofarType costSofar;\n\t\t//-----------------cjz--------------------------------------------------\n\t\tuint256 deltaLat10 = 596496069;\n        uint256[] deltaLon10 = [1191555127, 1180079800,1157239659,1123254668,1078452120,1023263489,958220271,883948868,801164554,710664587,613320532,510069865,401906947,289873444,175048303,58537350];\n        uint256 deltaLat9 = 4771968552;\n        uint256[] deltaLon9 = [4766220508,4720319200,4628958636,4493018672,4313808480,4093053956,3832881084,3535795472,3204658216,2842658348,1607627788,1159493776,700193212,234149400];\n        uint256 deltaLat8 = 19087874208;\n        uint256[] deltaLon8 = [38129764064,37762553600,37031669088,35944149376,34510467840,32744431648,30663048672,28286363776,25637265728,22741266784,19626257024,16322235680,12861022304,9275950208,5601545696,1873195200];\n        uint256 deltaLat7 = 152702993664;\n        uint256[] deltaLon7 = [152519056256,151050214400,148126676352,143776597504,138041871360,130977726592,122652194688,113145455104,102549062912,90965067136,78505028096,65288942720,51444089216,37103800832,22406182784,7492780800];\n\n        // uint256 deltaLat10 = 596;\n        // uint256[] deltaLon10 = [1191, 1180,1157,1123,1078,1023,958,883,801,710,613,510,401,289,175,58];\n        // uint256 deltaLat9 = 4771;\n        // uint256[] deltaLon9 = [4766,4720,4628,4493,4313,4093,3832,3535,3204,2842,1607,1159,700,234];\n        // uint256 deltaLat8 = 19087;\n        // uint256[] deltaLon8 = [38129,37762,37031,35944,34510,32744,30663,28286,25637,22741,19626,16322,12861,9275,5601,1873];\n        // uint256 deltaLat7 = 152702;\n        // uint256[] deltaLon7 = [152519,151050,148126,143776,138041,130977,122652,113145,102549,90965,78505,65288,51444,37103,22406,7492];\n\n\n\t\t// geohash\n\t\tfunction get_types(bytes32 hash) view public returns (int64[] memory feature, bytes32[] memory names, bytes32[] memory highways, bytes32[] memory gtypes, bytes32[] memory path) {\n\t\t\tuint256 num = geo_maps[hash].num;\n\t\t\tuint256 path_num = 0;\n\t\t\t//different parm in different domain may cause duplicate declare error when compile, maybe a bug\n\t\t\tuint256 i;\n\n\t\t\tif(num > 0){\n\t\t\t\tfeature = new int64[](7 * num);\n\t\t\t\tnames = new bytes32[]( num );\n\t\t\t\thighways = new bytes32[]( num );\n\t\t\t\tgtypes = new bytes32[]( num );\n\t\t\t\tuint256 gid;\n\t\t\t\tfor(i=0; i < num; i++){\n\t\t\t\t\tgid = geo_maps[hash].types_list[i]; \n\t\t\t\t\tone_type storage single_type = types[gid];\n\t\t\t\t\tuint256 base = i * 7;\n\t\t\t\t\tfeature[base] = int64(gid);\n\t\t\t\t\tfeature[base + 1] = single_type.minzoom;\n\t\t\t\t\tfeature[base + 2] = single_type.cost;\n\t\t\t\t\tfeature[base + 3] = single_type.source;\n\t\t\t\t\tfeature[base + 4] = single_type.target;\n\t\t\t\t\tif(single_type.oneway){\n\t\t\t\t\t\tfeature[base + 5] = 1;\n\t\t\t\t\t}\n\t\t\t\t\telse{\n\t\t\t\t\t\tfeature[base + 5] = 0;\n\t\t\t\t\t}\n\t\t\t\t\tif(single_type.building){\n\t\t\t\t\t\tfeature[base + 6] = 1;\n\t\t\t\t\t}\n\t\t\t\t\telse{\n\t\t\t\t\t\tfeature[base + 6] = 0;\n\t\t\t\t\t}\n\t\t\t\t\tpath_num = path_num + 1 + single_type.path_num;\n\t\t\t\t\tnames[i] = single_type.name;\n\t\t\t\t\thighways[i] = single_type.highway;\n\t\t\t\t\tgtypes[i] = single_type.gtype;\n\t\t\t\t}\n\t\t\t\tpath = new bytes32[](path_num);\n\t\t\t\tuint256 pos = 0;\n\t\t\t\tfor(i=0; i< num; i++){\n\t\t\t\t\tgid = geo_maps[hash].types_list[i];\n\t\t\t\t\t//may cause duplicate declare, don't know why\n\t\t\t\t\tone_type storage single_type2 = types[gid];\n\t\t\t\t\tpath[pos++] = bytes32(single_type2.path_num);\n\t\t\t\t\tfor(uint256 j=0; j< single_type2.path_num; j++){\n\t\t\t\t\t\tpath[pos++] = single_type2.path[j];\n\t\t\t\t\t}\n\t\t\t\t}\n\t\t\t}\n\t\t}\n\n\t\t// \n\t\tfunction add_onetype(uint256 gid, int64 minzoom, int64 cost, int64 source, int64 target, bool oneway, bool building, bytes32 highway, bytes32 name, bytes32 gtype, bytes32[] memory path) public {\n\t\t\ttypes[gid].minzoom = minzoom;\n\t\t\ttypes[gid].cost = cost;\n\t\t\ttypes[gid].source = source;\n\t\t\ttypes[gid].target = target;\n\t\t\ttypes[gid].oneway = oneway;\n\t\t\ttypes[gid].building = building;\n\t\t\ttypes[gid].highway = highway;\n\t\t\ttypes[gid].name = name;\n\t\t\ttypes[gid].gtype = gtype;\n\n\t\t\tadjacencyList[path[0]].adjs[adjacencyList[path[0]].adjnum].sourceGeohash = path[0];\n\t\t\tadjacencyList[path[0]].adjs[adjacencyList[path[0]].adjnum].targetGeohash = path[path.length - 1];\n\t\t\tadjacencyList[path[0]].adjs[adjacencyList[path[0]].adjnum].target = target;\n\t\t\tadjacencyList[path[0]].adjs[adjacencyList[path[0]].adjnum].cost = cost;\n\t\t\tadjacencyList[path[0]].adjs[adjacencyList[path[0]].adjnum++].gid = int64(gid);\n\n\t\t\tuint256 num = types[gid].path_num;\n\t\t\tfor(uint256 i=0; i< path.length; i++){\n\t\t\t\ttypes[gid].path[num++] = path[i];\n\t\t\t}\n\t\t\ttypes[gid].path_num = num;\n\t\t}\n\n\t\t//bind a line to an area \n\t\tfunction add_area_line(bytes32 hash, uint256 gid) public {\n\t\t\tuint256 num = geo_maps[hash].num++;\n\t\t\tgeo_maps[hash].types_list[num] = gid;\n\t\t}\n\t\t//astar\n\t\tfunction astar(bytes32 startGeohash, bytes32 endGeohash) public returns(bytes32[] memory backwards, uint256 costAll, uint256 searchNum, uint256 u2){\n            uint256 u1 = gasleft();\n\t\t\tenqueue(startGeohash, 0);\n\t\t\tcostSofar.map[startGeohash] = 0;\n\t\t\tcostSofar.index[costSofar.num] = startGeohash;\n\t\t\tcostSofar.num++;\n\t\t\tbytes32 currentGeohash;\n\t\t\tuint256 priority;\n            searchNum = 0;\n\t\t\twhile (frontier.geohashs.length > 1) {\n\t\t\t\tcurrentGeohash = top();\n\t\t\t\t//remove smallest item\n\t\t\t\tdequeue();\n\t\t\t\tadj_types storage adjNodes = adjacencyList[currentGeohash];\n\t\t\t\tif (currentGeohash == endGeohash) {\n\t\t\t\t\tcostAll = costSofar.map[currentGeohash];\n\t\t\t\t\t//paths\n\t\t\t\t\tbytes32 current = endGeohash;\n\t\t\t\t\tbackwards = new bytes32[](paths.num);\n\t\t\t\t\tuint256 i = 0;\n\t\t\t\t\twhile(current != startGeohash){\n\t\t\t\t\t\tbackwards[i] = current;\n\t\t\t\t\t\tcurrent = paths.map[current];\n\t\t\t\t\t\ti++;\n\t\t\t\t\t}\n\t\t\t\t\tbackwards[i] = startGeohash;\n                    u2 = u1 - gasleft();\n\t\t\t\t\t//\n\t\t\t\t\tfor(uint256 j = 0; j < paths.num; j++){\n\t\t\t\t\t\tdelete paths.map[paths.index[j]];\n\t\t\t\t\t\tdelete paths.index[j];\n\t\t\t\t\t}\n\t\t\t\t\tpaths.num = 0;\n\t\t\t\t\tfor(uint256 j = 0; j < costSofar.num; j++){\n\t\t\t\t\t\tdelete costSofar.map[costSofar.index[j]];\n\t\t\t\t\t\tdelete costSofar.index[j];\n\t\t\t\t\t}\n\t\t\t\t\tcostSofar.num = 0;\n\t\t\t\t\twhile (frontier.geohashs.length > 1){\n\t\t\t\t\t\tdequeue();\n\t\t\t\t\t}\n\t\t\t\t\tbreak;\n\t\t\t\t}\n\n\t\t\t\tfor (uint256 i = 0; i < adjNodes.adjnum; i++) {\n                    searchNum++;\n\t\t\t\t\tuint256 newCost = costSofar.map[currentGeohash] + uint256(adjacencyList[currentGeohash].adjs[i].cost);\n\t\t\t\t\tif (costSofar.map[adjNodes.adjs[i].targetGeohash] == 0 || newCost < costSofar.map[adjNodes.adjs[i].targetGeohash]) {\n\t\t\t\t\t\tif(costSofar.map[adjNodes.adjs[i].targetGeohash] == 0){\n\t\t\t\t\t\t\tcostSofar.index[costSofar.num] = adjNodes.adjs[i].targetGeohash;\n\t\t\t\t\t\t\tcostSofar.num++;\n\t\t\t\t\t\t}\n\t\t\t\t\t\tcostSofar.map[adjNodes.adjs[i].targetGeohash] = newCost;\n\t\t\t\t\t\tpriority = newCost * P + manhattan(adjNodes.adjs[i].targetGeohash, endGeohash);\n\t\t\t\t\t\tenqueue(adjNodes.adjs[i].targetGeohash, priority);\n\t\t\t\t\t\tif(paths.map[adjNodes.adjs[i].targetGeohash] == 0x0000000000000000000000000000000000000000000000000000000000000000){\n\t\t\t\t\t\t\tpaths.index[paths.num] = adjNodes.adjs[i].targetGeohash;\n\t\t\t\t\t\t\tpaths.num++;\n\t\t\t\t\t\t}\n\t\t\t\t\t\tpaths.map[adjNodes.adjs[i].targetGeohash] = currentGeohash;\n\t\t\t\t\t}\n\t\t\t\t}\n\t\t\t}\n\t\t}\n\t\t\n\t\t\n\t\tfunction manhattan(bytes32 nextGeohash, bytes32 endGeohash) public view returns (uint256){\n            if(nextGeohash == endGeohash){\n                return 0;\n            }\n            //geohash\n            \n            //\n            string memory shortNext;\n            string memory shortEnd;\n            bool flag;\n            \n            (shortNext, shortEnd,flag) = sliceGeoHash(nextGeohash, endGeohash);\n\n            uint256 dislat1 = getLatBlock(shortNext);\n            uint256 dislat2 = getLatBlock(shortEnd);\n            uint256 dislon1 = getLonBlock(shortNext);\n            uint256 dislon2 = getLonBlock(shortEnd);\n            \n            uint256 dislat;\n            uint256 dislon;\n\n            uint256 deltaLat = getLatDelta();\n            uint256 deltaLon = getLonDelta(nextGeohash);\n            if(dislat2 > dislat1){\n                dislat = dislat2 - dislat1;\n            }else{\n                dislat = dislat1 - dislat2;\n            }\n            if(dislon2 > dislon1){\n                dislon = dislon2 - dislon1;\n            }else{\n                dislon = dislon1 - dislon2;\n            }\n            if(flag == true){//\n                return (dislon*deltaLat + dislat*deltaLon);\n            }else{\n                return (dislat*deltaLat + dislon*deltaLon);\n            }\n        }\n\t\t\n\t\t//geohash78910\n\t\tuint256 PRECISION = 10;\n\t\tfunction changePrecision(uint256 newPrecision) public returns (uint256){\n\t\t\tPRECISION = newPrecision;\n\t\t\treturn PRECISION;\n\t\t}\n\t\tfunction changeP(uint256 newP) public returns (uint256){\n\t\t\tP = newP;\n\t\t\treturn P;\n\t\t}\n\t\tfunction sliceGeoHash(bytes32 geohash1, bytes32 geohash2) public view returns (string memory, string memory, bool){\n            bytes32 geo1 = geohash1;\n            bytes32 geo2 = geohash2;\n            uint256 len = geo1.length;\n            //geohash different start index\n            uint256 index;\n            bool flag;\n            //geohash different length\n            uint256 dif = 0;\n            for (index = 0; index < len; index++) {\n                if (geo1[index] != geo2[index]) {\n                    break;\n                }\n            }\n            if(index % 2 == 1){\n                flag = true;\n            }else{\n                flag = false;\n            }\n            dif = PRECISION - index;\n            uint256 index2 = 0;\n            bytes memory shortGeo1 = new bytes(dif);\n            bytes memory shortGeo2 = new bytes(dif);\n            for (uint256 j = index; j < PRECISION; j++) {\n                shortGeo1[index2] = geo1[j];\n                shortGeo2[index2] = geo2[j];\n                index2++;\n            }\n            return (string(shortGeo1), string(shortGeo2), flag);\n        }\n        \n        uint256[] Bits = [16, 8, 4, 2, 1];\n        string Base32 = \"0123456789bcdefghjkmnpqrstuvwxyz\";\n        //geohash\n        function getLatBlock(string memory geohash) public view returns (uint256) {\n            //geohash\n            bool even = true;\n            uint256 lat = 0;\n            for (uint256 i = 0; i < bytes(geohash).length; i++) {\n                byte c = bytes(geohash)[i];\n                uint256 cd;\n                for (uint256 j = 0; j < bytes(Base32).length; j++) {\n                    if (bytes(Base32)[j] == c) {\n                        cd = j;\n                        break;\n                    }\n                }\n                for (uint256 j = 0; j < 5; j++) {\n                    uint256 mask = Bits[j];\n                    if (!even) {\n                        lat = lat * 2;\n                        if ((cd & mask) != 0) {\n                            lat = lat + 1;\n                        }\n                    }\n                    even = !even;\n                }\n            }\n            return lat;\n        }\n        //geohash\n        function getLonBlock(string memory geohash) public view returns (uint256) {\n            //geohash\n            bool even = true;\n            uint256 lon = 0;\n            for (uint256 i = 0; i < bytes(geohash).length; i++) {\n                byte c = bytes(geohash)[i];\n                uint256 cd;\n                for (uint256 j = 0; j < bytes(Base32).length; j++) {\n                    if (bytes(Base32)[j] == c) {\n                        cd = j;\n                        break;\n                    }\n                }\n                for (uint256 j = 0; j < 5; j++) {\n                    uint256 mask = Bits[j];\n                    if (even) {\n                        lon = lon * 2;\n                        if ((cd & mask) != 0) {\n                            lon = lon + 1;\n                        }\n                    }\n                    even = !even;\n                }\n            }\n            return lon;\n        }\n        uint256 divnum = 4;\n        function getLonDelta(bytes32 geohash) public view returns (uint256){\n            uint256 index = 0;\n            bytes memory geo = new bytes(2);\n            for (uint256 i = 0; i < 2; i++) {\n                geo[index] = geohash[i];\n                index++;\n            }\n            uint256 lat = getLatBlock(string(geo));\n            // lat = lat >> (PRECISION * 5 / 2 - (divnum + 1));\n            if ((lat & (1 << divnum)) != (1 << divnum)) {\n                lat = (1 << (divnum + 1) - 1) - lat;\n            }\n            lat = lat - (1 << divnum);\n            if(PRECISION == 7){\n                return deltaLon7[lat];\n            }else if(PRECISION == 8){\n                return deltaLon8[lat];\n            }else if(PRECISION == 9){\n                return deltaLon9[lat];\n            }else if(PRECISION == 10){\n                return deltaLon10[lat];\n            }\n            return lat;\n        }\n        function getLatDelta() public view returns (uint256){\n            if(PRECISION == 7){\n                return deltaLat7;\n            }else if(PRECISION == 8){\n                return deltaLat8;\n            }else if(PRECISION == 9){\n                return deltaLat9;\n            }else if(PRECISION == 10){\n                return deltaLat10;\n            }\n        }\n\t\t//\n\t\tstruct Heap {\n\t\t\tbytes32[] geohashs;\n\t\t\tmapping(bytes32 => uint256) map;\n\t\t}\n\t\t//\n\t\tHeap frontier;\n\t\t//\n\t\tmodifier notEmpty() {\n\t\t\trequire(frontier.geohashs.length > 1);\n\t\t\t_;\n\t\t}\n\t\t//\n\t\tfunction top() public view notEmpty() returns(bytes32) {\n\t\t\treturn frontier.geohashs[1];\n\t\t}\n\t\t//\n\t\tfunction dequeue() public notEmpty(){\n\t\t\trequire(frontier.geohashs.length > 1);\n\t\t\t\n\t\t\tbytes32 toReturn = top();\n\t\t\tfrontier.geohashs[1] = frontier.geohashs[frontier.geohashs.length - 1];\n\t\t\tfrontier.geohashs.pop();\n\n\t\t\tuint256 i = 1;\n\n\t\t\twhile (i * 2 < frontier.geohashs.length) {\n\t\t\t\tuint256 j = i * 2;\n\n\t\t\t\tif (j + 1 < frontier.geohashs.length)\n\t\t\t\t\tif (frontier.map[frontier.geohashs[j]] > frontier.map[frontier.geohashs[j + 1]]) \n\t\t\t\t\t\tj++;\n\t\t\t\t\n\t\t\t\tif (frontier.map[frontier.geohashs[i]] < frontier.map[frontier.geohashs[j]])\n\t\t\t\t\tbreak;\n\t\t\t\t\n\t\t\t\t(frontier.geohashs[i], frontier.geohashs[j]) = (frontier.geohashs[j], frontier.geohashs[i]);\n\t\t\t\ti = j;\n\t\t\t}\n\t\t\tdelete frontier.map[toReturn];\n\t\t}\n\t\t//\n\t\tfunction enqueue(bytes32 geohash, uint256 cost) public {\n\t\t\tif (frontier.geohashs.length == 0) \n\t\t\t\t// initialize\n\t\t\t\tfrontier.geohashs.push(0x0000000000000000000000000000000000000000000000000000000000000000); \n\t\t\t\n\t\t\tfrontier.geohashs.push(geohash);\n\t\t\tfrontier.map[geohash] = cost;\n\t\t\tuint256 i = frontier.geohashs.length - 1;\n\t\t\twhile (i > 1 && frontier.map[frontier.geohashs[i / 2]] > frontier.map[frontier.geohashs[i]]) {\n\t\t\t\t(frontier.geohashs[i / 2], frontier.geohashs[i]) = (geohash, frontier.geohashs[i / 2]);\n\t\t\t\ti /= 2;\n\t\t\t}\n\t\t}\n\t}\n\n\n",
  "sourcePath": "/home/ubuntu//trufflebytecode/contracts/calDistance.sol",
  "compiler": {
    "name": "solc",
    "version": "0.5.16+commit.9c3226ce.Emscripten.clang"
  },
  "schemaVersion": "3.2.5",
  "updatedAt": "2022-04-08T16:22:33.827Z",
  "devdoc": {
    "methods": {}
  },
  "userdoc": {
    "methods": {}
  }
}